:100000000C9434000C943E000C943E000C943E0082
:100010000C943E000C943E000C943E000C943E0068
:100020000C943E000C943E000C943E000C943E0058
:100030000C943E000C943E000C943E000C943E0048
:100040000C943E000C943E000C9488000C943E00EE
:100050000C943E000C943E000C943E000C943E0028
:100060000C943E000C943E0011241FBECFEFD8E04C
:10007000DEBFCDBF0E9426010C942E010C9400001F
:10008000F894E0ECF0E080811082E1ECF0E0808117
:1000900080698083A2ECB0E08C9186608C93109292
:1000A000C50087E68093C400808188698083789446
:1000B00008959091C00095FFFCCF8093C6000895ED
:1000C00084B18F6084B985B18F6085B9289808950F
:1000D000E0E8F0E08081826A8083E1E8F0E08081FE
:1000E0008A61808386B3866086BB85E080938900C1
:1000F0008CED8093880081E080938B0084EF809367
:100100008A0083EC8093870080E5809386000895C1
:100110001F920F920FB60F9211242F933F934F937C
:100120005F936F937F938F939F93AF93BF93EF935F
:10013000FF93CF93DF931F92CDB7DEB7F8948091F2
:10014000C60089838981873519F08981873789F4C9
:1001500089810E945900809188009091890086359C
:10016000934108F05EC08091880090918900C2960A
:1001700016C08981833519F089818337A9F4898173
:100180000E94590080918800909189008F3096409C
:1001900008F447C08091880090918900C29790939D
:1001A0008900809388003DC08981843419F0898159
:1001B000843681F489810E94590080918A0090914F
:1001C0008B008635934168F580918A0090918B0071
:1001D000C29615C08981813419F089818136A1F4D4
:1001E00089810E94590080918A0090918B0087320A
:1001F0009240B8F080918A0090918B00C2979093C2
:100200008B0080938A000DC08981813519F0898126
:10021000813739F489810E94590095B181E089279D
:1002200085B978940F90DF91CF91FF91EF91BF91B5
:10023000AF919F918F917F916F915F914F913F917E
:100240002F910F900FBE0F901F9018950E944000A5
:100250000E9460000E9468007894FFCFF894FFCF5E
:00000001FF
