:100000000C9434000C9446000C9446000C9446006A
:100010000C9446000C9446000C9446000C94460048
:100020000C9446000C9446000C9446000C947E02FE
:100030000C94A2020C9446000C9446000C944600CA
:100040000C9446000C9446000C94D8020C94460084
:100050000C9446000C9446000C9446000C94460008
:100060000C9446000C94460011241FBECFEFD8E03C
:10007000DEBFCDBF22E0A0E0B1E001C01D92A23101
:10008000B207E1F70E940B030C943E030C940000AE
:10009000E0E8F0E0808183608083E1E8F0E0808147
:1000A00089618083EFE6F0E0808186608083E8E804
:1000B000F0E080EA9FE09183808380819181969532
:1000C00087959695879590938B0080938A000895E5
:1000D0008AB18C678AB91BB80895F89489E190E0D9
:1000E0009093C5008093C400E0ECF0E080818D7FA8
:1000F0008083E1ECF0E0808188698083A2ECB0E04D
:100100008C9186608C938081806980837894089537
:10011000EFE6F0E08081866080830895EFE6F0E00E
:100120008081897F808308959091C00095FFFCCFE6
:100130008093C60008959C0180E0F901E80FF11D4D
:100140009081992311F08F5FF8CF0895EF92FF927D
:100150000F931F93CF93DF93EB01FB018B0120E003
:1001600030E05AE0E52EF12C2F5F3F4FB7010E949F
:100170001603805DD8018D938D01CB0118161906E9
:100180009CF3CE01820F931FDC01359527952C0F30
:100190003D1FE217F30729F040815E9151934C9384
:1001A000F8CFFC011082DF91CF911F910F91FF904A
:1001B000EF900895EF92FF920F931F93CF93DF93E9
:1001C0008C010E949B007801C82FD0E0C701801BE2
:1001D000910B8C179D0734F4F70181917F010E94E8
:1001E0009400F4CFDF91CF911F910F91FF90EF908A
:1001F0000895AAE0B2E0EC9184E0E89FF0011124B8
:10020000E657FE4F40910C0250910D0260910E0294
:1002100070910F024083518362837383EBE0F2E0BD
:1002200080818F5F80838C918F5F8C930895809104
:100230000B02882309F440C020910B0230E02150CA
:100240003109220F331F220F331F80E090E0821705
:100250009307E1F0AC014F5F5F4F880F991F880F44
:10026000991FFC01E657FE4FDA01AA0FBB1FAA0F28
:10027000BB1FA657BE4F8D919D910D90BC91A02D97
:1002800080839183A283B383CA01E1CF10920602D7
:1002900010920702109208021092090280910B023C
:1002A000815080930B0280910A02882329F080916B
:1002B0000A02815080930A020895A8E8B1E0EC9107
:1002C00084E0E89FF0011124E85FFE4F40910C02AA
:1002D00050910D0260910E0270910F024083518384
:1002E000628373838C918F5F8C93E9E8F1E0808166
:1002F0008F5F8083089580918901882309F440C02D
:100300002091890130E021503109220F331F220F43
:10031000331F80E090E082179307E1F0AC014F5F5C
:100320005F4F880F991F880F991FFC01E85FFE4FF0
:10033000DA01AA0FBB1FAA0FBB1FA85FBE4F8D918A
:100340009D910D90BC91A02D80839183A283B38356
:10035000CA01E1CF109284011092850110928601AA
:100360001092870180918901815080938901809149
:100370008801882329F08091880181508093880129
:100380000895ECE0F2E0148210821182128213824E
:100390000895E0911002F0E0E45FFD4F80838091CA
:1003A00010028F5F8093100280911002843078F0E9
:1003B00080910C02883519F40E94F90006C08091E2
:1003C0000C02893511F40E945D010C94C10108955D
:1003D0008E3491F01CF4833431F00895833619F093
:1003E0008E3651F008952BB181E090E001C0880F66
:1003F0006A95EAF7822B09C02BB181E090E001C039
:10040000880F6A95EAF7809582238BB90895E0E01A
:10041000F1E088E0DF011D928A95E9F780910B02F7
:100420008823F9F081E08093000180918B01809313
:10043000010140918D0190918C0120910401309136
:100440000501892F90E0942B822B932B909305012B
:10045000809304018091010164E00E94E8010E9400
:100460001701809189018823F9F081E080930201CE
:10047000809109018093030140910B0190910A0141
:100480002091060130910701892F90E0942B822B57
:10049000932B90930701809306018091030166E0FE
:1004A0000E94E8010C947B01089580911102813033
:1004B00061F018F0823079F0089590910B028091EC
:1004C0008901892BD1F381E003C00E94070282E0F9
:1004D0008093110208950E948800209104013091B8
:1004E00005018091060190910701822B932B892BA6
:1004F000A1F70E948E001092110208951F920F9290
:100500000FB60F9211248F939F938091000188233F
:1005100039F08091040190910501892B09F05B98D5
:1005200080910201882339F08091060190910701A2
:10053000892B09F05D989F918F910F900FBE0F90BE
:100540001F9018951F920F920FB60F9211248F9340
:100550009F9380910001882381F080910401909104
:100560000501892B51F05B9A80910401909105015E
:1005700001979093050180930401809102018823E3
:1005800081F08091060190910701892B51F05D9ACD
:100590008091060190910701019790930701809344
:1005A00006019F918F910F900FBE0F901F9018958D
:1005B0001F920F920FB60F9211242F933F934F93D8
:1005C0005F936F937F938F939F93AF93BF93EF93BB
:1005D000FF93CF93DF931F92CDB7DEB78091C60014
:1005E000898389810E94940089810E94C9010F90AA
:1005F000DF91CF91FF91EF91BF91AF919F918F913B
:100600007F916F915F914F913F912F910F900FBE0E
:100610000F901F9018950E9448000E9468000E9449
:100620006D000E948E000E945502FDCF97FB072EA1
:1006300016F4009407D077FD09D00E942A0307FC26
:1006400005D03EF4909581959F4F089570956195E2
:100650007F4F0895AA1BBB1B51E107C0AA1FBB1FF8
:10066000A617B70710F0A61BB70B881F991F5A953E
:10067000A9F780959095BC01CD010895F894FFCF1E
:00000001FF
